:100000000C9463000C948B000C948B000C94DA0617
:100010000C94DA060C94DA060C948B000C948B008A
:100020000C948B000C948B000C948B000C948B0024
:100030000C948B000C948B000C948B000C948B0014
:100040000C9490060C948B000C945E060C9438066D
:100050000C948B000C948B000C948B000C948B00F4
:100060000C948B000C948B000000000024002700EF
:100070002A0000000008000201000003040700003D
:1000800000000000000000000000250028002B00F8
:1000900000000000230026002900040404040404D6
:1000A0000404020202020202030303030303010227
:1000B00004081020408001020408102001020408F6
:1000C00010205407380A11241FBECFEFD8E0DEBF3E
:1000D000CDBF23E0A0E2B2E001C01D92A134B2077F
:1000E000E1F712E0A0E0B1E0EAEFF9E102C005902B
:1000F0000D92A032B107D9F710E0C2E6D0E004C0FB
:100100002197FE010E94BB0AC136D107C9F70E94A0
:100110000A080C94F00C0C9400002FB7F89480910E
:10012000710290917202A0917302B09174022FBF7C
:100130008093260390932703A0932803B093290369
:10014000E0911E03F0911F030284F385E02D8EE100
:1001500093E0099597FF26C02FB7F894809171021C
:1001600090917202A0917302B09174022FBF4091DE
:100170002603509127036091280370912903841B63
:10018000950BA60BB70B409122035091230360916E
:1001900024037091250384179507A607B70780F2FB
:1001A0008FEF9FEF08950895CF92DF92EF92FF9225
:1001B0000F931F93CF93DF936C017A018B01C0E003
:1001C000D0E0CE15DF0589F0D8016D918D01D60103
:1001D000ED91FC910190F081E02DC6010995892BEC
:1001E00011F47E0102C02196ECCFC701DF91CF91BF
:1001F0001F910F91FF90EF90DF90CF900895FC0139
:10020000538D448D252F30E0842F90E0821B930B7B
:10021000541710F0CF96089501970895FC01918D21
:10022000828D981761F0828DDF01A80FB11D5D9658
:100230008C91928D9F5F9F73928F90E008958FEFC6
:100240009FEF0895FC01918D828D981731F0828D7A
:10025000E80FF11D858D90E008958FEF9FEF0895D1
:10026000FC01918D228D892F90E0805C9F4F821B35
:1002700091098F739927089585E792E00E943001D4
:1002800021E0892B09F420E0822F0895FC01848D60
:10029000DF01A80FB11DA35ABF4F2C91848D90E0B0
:1002A00001968F739927848FA689B7892C93A0898B
:1002B000B1898C9180648C93938D848D981306C042
:1002C0000288F389E02D80818F7D80830895EF92ED
:1002D000FF920F931F93CF93DF93EC0181E0888F00
:1002E0009B8D8C8D981305C0E889F989808185FDE7
:1002F00024C0F62E0B8D10E00F5F1F4F0F731127D8
:10030000E02E8C8DE8120CC00FB607FCFACFE889FE
:10031000F989808185FFF5CFCE010E944601F1CF9A
:100320008B8DFE01E80FF11DE35AFF4FF0820B8F1A
:10033000EA89FB898081806207C0EE89FF8960833A
:10034000E889F98980818064808381E090E0DF9191
:10035000CF911F910F91FF90EF900895CF93DF936E
:10036000EC01888D8823C9F0EA89FB89808185FDAD
:1003700005C0A889B9898C9186FD0FC00FB607FC0E
:10038000F5CF808185FFF2CFA889B9898C9185FF4F
:10039000EDCFCE010E944601E7CFDF91CF910895C6
:1003A00080E090E0892B29F00E943C0181110C949F
:1003B00000000895833081F028F4813099F0823074
:1003C000A1F008958730A9F08830B9F08430D1F4D5
:1003D000809180008F7D03C0809180008F77809313
:1003E0008000089584B58F7702C084B58F7D84BD69
:1003F00008958091B0008F7703C08091B0008F7D09
:100400008093B0000895CF93DF93282F30E0F90157
:10041000EE58FF4F8491F901E255FF4FD491F90155
:10042000E656FF4FC491CC2391F081110E94DA016E
:10043000EC2FF0E0EE0FFF1FE057FF4FA591B491B6
:10044000EC91ED2381E090E021F480E002C080E0B7
:1004500090E0DF91CF9108951F93CF93DF93282FE2
:1004600030E0F901EE58FF4F8491F901E255FF4F5A
:10047000D491F901E656FF4FC491CC23C9F0162F51
:1004800081110E94DA01EC2FF0E0EE0FFF1FEA5716
:10049000FF4FA591B4918FB7F894111105C09C91AD
:1004A000ED2FE095E92302C0EC91ED2BEC938FBF8B
:1004B000DF91CF911F910895CF93DF9390E0FC01DE
:1004C000E255FF4F2491FC01E656FF4F84918823AB
:1004D00061F190E0880F991FFC01E859FF4FC59129
:1004E000D491FC01EA57FF4FA591B491611109C065
:1004F0009FB7F8948881209582238883EC912E23DE
:100500000BC0623061F49FB7F8943881822F8095D8
:1005100083238883EC912E2B2C939FBF06C08FB72B
:10052000F894E8812E2B28838FBFDF91CF91089517
:100530003FB7F8948091610290916202A0916302AA
:10054000B091640226B5A89B05C02F3F19F0019613
:10055000A11DB11D3FBFBA2FA92F982F8827820F49
:10056000911DA11DB11DBC01CD0142E0660F771F99
:10057000881F991F4A95D1F708958F929F92AF9245
:10058000BF92CF92DF92EF92FF926B017C010E94AB
:1005900098024B015C01C114D104E104F104F1F0B3
:1005A0000E949802DC01CB0188199909AA09BB09AC
:1005B000883E9340A105B10570F321E0C21AD1082D
:1005C000E108F10888EE880E83E0981EA11CB11C9A
:1005D000C114D104E104F10419F7DDCFFF90EF90CD
:1005E000DF90CF90BF90AF909F908F900895209113
:1005F0006702309168022817390771F490916502FB
:1006000080916602981741F0E0916502F0E0E05EAB
:10061000FD4F808190E008958FEF9FEF089508953A
:100620001F93CF93DF93DC015C962D913C915D97F6
:100630002115310539F481E090E013969C938E9357
:1006400012973DC05196ED91FC91529750969C9116
:100650005097892F80951FB75E964C915E9741FB0E
:10066000772770F941FD6095F8944081772311F068
:10067000492B01C048234083E9012197F1F748E065
:10068000508160FF02C0592B01C058235083E901FB
:100690002197F1F76695415099F7772321F09081E2
:1006A0008923808303C08081982B90831FBF5C9631
:1006B0008D919C915D970197F1F721E030E0C901A0
:1006C000DF91CF911F9108952091670230916802C8
:1006D0002817390771F4809166022091650290E035
:1006E000805C9F4F821B910960E470E00E94930A36
:1006F000089580E090E008952091670230916802AB
:1007000028173907B9F4909165028091660298170D
:1007100089F0E0916502F0E0E05EFD4F808120917C
:10072000650230E02F5F3F4F2F7333272093650220
:1007300090E008958FEF9FEF0895089580E090E096
:100740000895CF93DF9320911C0330911D03232B39
:1007500079F0FC01C0911803D09119036081718177
:10076000CE010E94D60C009719F08C1B9D0B02C085
:100770008FEF9FEFDF91CF9108950E94B80C611524
:10078000710579F0FB0101900020E9F73197AF0185
:10079000461B570BDC01ED91FC910280F381E02DAB
:1007A000099480E090E008950F931F93CF93DF9317
:1007B000EC010E94BF038C016AE271E0CE010E944D
:1007C000BF03800F911FDF91CF911F910F9108956B
:1007D000CF93DF93EC0188819981009711F00E94FB
:1007E000560B198218821D821C821B821A82DF918D
:1007F000CF910895FC01808191810C94560B0F9349
:100800001F93CF93DF938C01EB01FC0180819181D9
:100810000097B1F0688179816115710579F04281A5
:1008200053812C813D814217530740F00E94CF0C29
:100830008C819D81F8019583848313C00E94560B9F
:1008400088819981F801918380838A819B81938338
:1008500082838C819D8195838483198218821B8277
:100860001A821D821C82DF91CF911F910F910895F2
:100870000F931F93CF93DF93EC01888199810097A9
:1008800029F02A813B812617370788F48B016F5F97
:100890007F4F0E94EE0B009761F0998388831B8342
:1008A0000A832C813D81232B11F4FC01108281E00D
:1008B00001C080E0DF91CF911F910F910895EF92D9
:1008C000FF920F931F93CF93DF93EC017B018A017B
:1008D000BA010E943804811104C0CE010E94E803CD
:1008E00007C01D830C83B701888199810E94CF0CBA
:1008F000CE01DF91CF911F910F91FF90EF9008955E
:10090000CF93DF93EC016115710559F0FB01019064
:100910000020E9F73197AF01461B570B0E945F0497
:1009200002C00E94E803CE01DF91CF910895FB0140
:10093000DC0111961C921E9213961C921E92129725
:1009400015961C921E9214978617970749F060819E
:1009500071816115710521F0448155810C945F040A
:100960000895FC0111821082138212821582148272
:100970006115710551F0FB0101900020E9F73197F5
:10098000AF01461B570B0C945F040895CF92DF9282
:10099000EF92FF920F931F93CF93DF93CDB7DEB704
:1009A0002C970FB6F894DEBF0FBECDBF7C018EE151
:1009B00093E00E946403181619060CF042C06CE222
:1009C00071E0CE0101960E94B1040E948D0097FD56
:1009D0001BC08F8318860D811E810F5F1F4FB801CA
:1009E000CE0101960E943804882379F329813A8147
:1009F0008D819E81BE01695F7F4F820F931F0E9490
:100A0000CF0C1E830D83E1CFBE016F5F7F4F88E166
:100A100093E00E94FF03CE0101960E94FA034091E9
:100A20001C0350911D03609118037091190385E711
:100A300092E00E94D4006AE070E080E090E00E94C2
:100A4000BD026DE371E0CE0101960E94B104CE01BA
:100A500001960E94A1038C01CE0101960E94FA0327
:100A600017FD12C06DE271E082E193E00E94800404
:100A700060E371E085E792E00E94D4036CE271E0EC
:100A800088E193E00E94800461E571E0CE01019667
:100A90000E94B104CE0101960E94A1038C01CE01F7
:100AA00001960E94FA0317FD16C060E08DE00E94D7
:100AB0002C0260E471E082E193E00E94800464E42F
:100AC00071E085E792E00E94D4036CE271E088E176
:100AD00093E00E94800465E571E0CE0101960E94DA
:100AE000B104CE0101960E94A1038C01CE010196B2
:100AF0000E94FA0317FDA7C06BE571E0CE010796CF
:100B00000E94B1042091160330911703C090120384
:100B1000D09013030B851C85C114D10409F48EC039
:100B200021153105A9F0020F131FB801CE01079658
:100B30000E943804882309F481C02F8138858B8571
:100B40009C85B601820F931F0E94CF0C1C870B87D8
:100B5000BE01695F7F4FCE0101960E949704CE01CE
:100B600007960E94FA03BE016F5F7F4FCE01079682
:100B70000E94970465E671E08EE193E00E94BF0356
:100B800064E670E080E090E00E94BD0260E771E002
:100B90008EE193E00E94D40364E670E080E090E090
:100BA0000E94BD024B855C856F8178858EE193E064
:100BB0000E94D4006AE271E08EE193E00E94BF03DC
:100BC00064E670E080E090E00E94BD02E0911E03C8
:100BD000F0911F030190F081E02D6AE18EE193E036
:100BE00009956AE271E08EE193E00E94BF0364E63A
:100BF00070E080E090E00E94BD026AE271E08EE168
:100C000093E00E94BF0368E873E180E090E00E94F7
:100C1000BD02CE0107960E94FA036CE871E085E7F9
:100C200092E00E94D4036CE271E088E193E00E94BC
:100C30008004CE0101960E94FA0305C0CE010796FA
:100C40000E94E80385CF62E173E0C7010E94970428
:100C5000C7012C960FB6F894DEBF0FBECDBFDF9153
:100C6000CF911F910F91FF90EF90DF90CF9008955B
:100C70001F920F920FB60F9211242F933F934F9311
:100C80005F936F937F938F939F93AF93BF93EF93F4
:100C9000FF9385E792E00E944601FF91EF91BF919B
:100CA000AF919F918F917F916F915F914F913F9104
:100CB0002F910F900FBE0F901F9018951F920F92BB
:100CC0000FB60F9211242F938F939F93EF93FF935F
:100CD000E0918502F09186028081E0918B02F09193
:100CE0008C0282FD12C0908180918E028F5F8F7383
:100CF00020918F02821751F0E0918E02F0E0EB58C4
:100D0000FD4F958F80938E0201C08081FF91EF91FE
:100D10009F918F912F910F900FBE0F901F9018955C
:100D20001F920F920FB60F9211242F933F938F9320
:100D30009F93AF93BF938091710290917202A091A3
:100D40007302B09174023091600223E0230F2D37BB
:100D500020F40196A11DB11D05C026E8230F0296BF
:100D6000A11DB11D209360028093710290937202C5
:100D7000A0937302B0937402809161029091620219
:100D8000A0916302B09164020196A11DB11D8093F0
:100D9000610290936202A0936302B0936402BF91D8
:100DA000AF919F918F913F912F910F900FBE0F9018
:100DB0001F9018951F920F920FB60F9211242F9328
:100DC0003F934F935F936F937F938F939F93AF93D3
:100DD000BF93EF93FF93E0916702F0916802309721
:100DE00009F451C0968DA685B785858591FF04C00D
:100DF0009C91892329F447C09C91892309F043C021
:100E0000A389B4899C918589809589238C9386894F
:100E100097890197F1F7608D718DA685B785558506
:100E200038E020E0CB010197F1F7822F90E0959513
:100E30008795282F4C91452309F02068315091F770
:100E4000868D81FD20958091660290E001968F73DA
:100E5000992730916502381749F0A0916602B0E0F9
:100E6000A05EBD4F2C938093660203C0868D816087
:100E7000868F828D938D0197F1F7A389B4899C9118
:100E80008589892B8C93FF91EF91BF91AF919F91B1
:100E90008F917F916F915F914F913F912F910F9023
:100EA0000FBE0F901F901895109278021092770243
:100EB00088EE93E0A0E0B0E08093790290937A020C
:100EC000A0937B02B0937C022AE031E0309376025B
:100ED0002093750225EC30E030938202209381024A
:100EE00024EC30E0309384022093830220EC30E045
:100EF000309386022093850221EC30E03093880203
:100F00002093870222EC30E030938A0220938902FA
:100F100026EC30E030938C0220938B0210928E02EC
:100F200010928F021092900210929102109221035F
:100F3000109220038093220390932303A093240311
:100F4000B09325038CE191E090931F0380931E03DF
:100F50001092350310923403109237031092360327
:100F6000109239031092380310923B0310923A0307
:100F700060913C036E7F6D7F60933C03669561706A
:100F800081E068278BE00E942C0261E08BE00E94E8
:100F90005C02E9EBF0E0E491E0932E03E5EAF0E097
:100FA000E491F0E0EE0FFF1FEA57FF4F8591949117
:100FB0009093300380932F0360E08AE00E945C02EC
:100FC00080913C0381FD04C061E08AE00E942C0214
:100FD0008AE080932A03E8EBF0E0E491E0932B03AE
:100FE000E4EAF0E0E491F0E0EE0FFF1FE057FF4F7E
:100FF0008591949190932D0380932C036CE271E082
:1010000088E193E00E94B10460E471E082E193E042
:101010000C94B104CF93DF9300D000D000D0CDB7B3
:10102000DEB7789484B5826084BD84B5816084BD68
:1010300085B5826085BD85B5816085BD80916E0076
:10104000816080936E0010928100809181008260A7
:1010500080938100809181008160809381008091E4
:1010600080008160809380008091B10084608093D3
:10107000B1008091B00081608093B00080917A00CF
:10108000846080937A0080917A00826080937A00F5
:1010900080917A00816080937A0080917A008068E4
:1010A00080937A001092C10061E08DE00E945C02A2
:1010B00060E08DE00E942C0260E085E00E945C020E
:1010C00060E086E00E945C0260E087E00E945C02D3
:1010D000E0918502F091860282E08083E0918102B6
:1010E000F09182021082E0918302F091840287E6FF
:1010F000808310928D02E0918902F0918A0286E04D
:101100008083E0918702F0918802808180618083F2
:10111000E0918702F0918802808188608083E0916D
:101120008702F0918802808180688083E091870245
:10113000F091880280818F7D808310923903109214
:101140003803109237031092360310923503109231
:1011500034038DEC90E090933B0380933A0390919D
:101160002A03963108F057C025E530E03093350367
:10117000209334032BEC30E0309337032093360375
:1011800020E930E030933903209338032091680040
:10119000983050F031E09E3008F430E081E001C03A
:1011A000880F3A95EAF701C084E0822B80936800AB
:1011B000983038F09E3040F0963148F020E030E032
:1011C00008C02DE630E005C02BE630E002C02CE67A
:1011D00030E03093320320933103983030F481E0D3
:1011E00001C0880F9A95EAF70EC0292F30E09E3093
:1011F00018F42850310902C02E50310981E001C095
:10120000880F2A95EAF78093330380913A039091EF
:101210003B030197F1F78091380390913903892BB3
:1012200049F1E0916702F091680283E0EE31F8073E
:1012300009F1309739F0A389B4899C91858980950B
:1012400089238C9380913C038E7F80933C03109282
:101250006602109265028EE193E09093680280939B
:101260006702E0913103F091320390818091330362
:10127000892B808361EA71E085E792E00E94BF03D9
:1012800065E671E08EE193E00E94BF0364E670E0E2
:1012900080E090E00E94BD0265EC71E08EE193E099
:1012A0000E94BF0364E670E080E090E00E94BD020F
:1012B00085E00E9403028C019093700280936F027C
:1012C00062E370E080E090E00E94BD02012B09F033
:1012D000BCC0CE0101960E94C604BE016F5F7F4F65
:1012E00082E193E00E94FF03CE0101960E94FA037F
:1012F0008091160390911703892B09F47DC06DE24C
:1013000071E080911203909113030E94C60C892B07
:1013100009F072C062E173E0CE0101960E94970469
:1013200086E00E9403028C0190936C0280936B0212
:1013300087E00E94030290936A0280936902013061
:10134000110569F48130910551F490936E028093F8
:101350006D0268ED71E085E792E00E94D403809110
:101360006B0290916C02892B81F4809169029091BB
:101370006A02892B51F410926E0210926D0263EE94
:1013800071E085E792E00E94D40380916B02909116
:101390006C02892B61F48091690290916A02019735
:1013A00031F46DEE71E085E792E00E94D403009184
:1013B0006D0210916E02CE0101960E94FA03013077
:1013C000110551F461E08DE00E942C026AEF71E09A
:1013D00085E792E00E94D40380916D0290916E02A5
:1013E000892B51F460E08DE00E942C0263E072E0F2
:1013F00085E792E00E94D403809116039091170331
:10140000892B19F160E471E080911203909113032C
:101410000E94C60C892BC9F4CE0101960E94C60415
:10142000BE016F5F7F4F82E193E00E94FF03CE0118
:1014300001960E94FA0360E08DE00E942C0263E0B6
:1014400072E085E792E00E94D40380916F02909150
:101450007002019751F461E08DE00E942C026DE072
:1014600072E085E792E00E94D4030E94D00120CF71
:1014700082E193E00E94FA0388E193E00E94FA037C
:101480008CE191E090931F0380931E03809167028B
:10149000909168028E51934071F4E0913103F09184
:1014A0003203908180913303809589238083109249
:1014B00068021092670208952F923F924F925F92B6
:1014C0006F927F928F929F92AF92BF92CF92DF9254
:1014D000EF92FF920F931F93CF93DF93CDB7DEB7B9
:1014E000CA1BDB0B0FB6F894DEBF0FBECDBF09944D
:1014F0002A88398848885F846E847D848C849B84A4
:10150000AA84B984C884DF80EE80FD800C811B81B1
:10151000AA81B981CE0FD11D0FB6F894DEBF0FBEE0
:10152000CDBFED01089597FB072E16F4009407D068
:1015300077FD09D00E94A70A07FC05D03EF49095DC
:1015400081959F4F0895709561957F4F0895AA1BCF
:10155000BB1B51E107C0AA1FBB1FA617B70710F09E
:10156000A61BB70B881F991F5A95A9F780959095D0
:10157000BC01CD010895EE0FFF1F0590F491E02D01
:101580000994CF93DF938230910510F482E090E0CC
:10159000E0913F03F091400320E030E0C0E0D0E074
:1015A000309711F14081518148175907C0F0481711
:1015B000590761F482819381209719F09B838A8374
:1015C0002BC09093400380933F0326C02115310523
:1015D00019F04217530718F49A01BE01DF01EF0119
:1015E0000280F381E02DDCCF2115310509F1281BA4
:1015F000390B2430310590F412968D919C911397FC
:101600006115710521F0FB019383828304C09093DF
:10161000400380933F03FD01329644C0FD01E20F79
:10162000F31F81939193225031092D933C933AC03B
:1016300020913D0330913E03232B41F42091020180
:101640003091030130933E0320933D03209100012C
:10165000309101012115310541F42DB73EB740917C
:10166000040150910501241B350BE0913D03F091DD
:101670003E03E217F307A0F42E1B3F0B2817390790
:1016800078F0AC014E5F5F4F2417350748F04E0FDE
:101690005F1F50933E0340933D038193919302C09B
:1016A000E0E0F0E0CF01DF91CF9108950F931F9319
:1016B000CF93DF93009709F48CC0FC01329713821B
:1016C000128200913F03109140030115110581F42E
:1016D00020813181820F931F20913D0330913E0381
:1016E0002817390779F5F0933E03E0933D0371C065
:1016F000D80140E050E0AE17BF0750F412962D918C
:101700003C911397AD012115310509F1D901F3CFB2
:101710009D01DA013383228360817181860F971FD7
:101720008217930769F4EC0128813981260F371F4E
:101730002E5F3F4F318320838A819B8193838283F5
:10174000452B29F4F0934003E0933F0342C01396E6
:10175000FC93EE931297ED01499159919E01240F4C
:10176000351FE217F30771F480819181840F951F73
:10177000029611969C938E938281938113969C93EB
:101780008E931297E0E0F0E0D80112968D919C9133
:101790001397009719F0F8018C01F6CF8D919C9169
:1017A00098012E5F3F4F820F931F20913D03309190
:1017B0003E032817390769F4309729F41092400343
:1017C00010923F0302C01382128210933E030093D3
:1017D0003D03DF91CF911F910F910895A0E0B0E0FC
:1017E000E4EFFBE00C94600AEC01009721F4CB01DC
:1017F0000E94C10AB8C0FC01E60FF71F9C012250ED
:101800003109E217F30708F4ACC0D9010D911C911E
:10181000119706171707B0F00530110508F49FC09F
:10182000C80104978617970708F499C00250110958
:10183000061B170B019311936D937C93CF010E94AC
:10184000560B8DC05B01A01AB10A4C01800E911E8F
:10185000A0913F03B091400340E050E0E12CF12C17
:10186000109709F44AC0A815B905D1F56D907C9080
:101870001197630182E0C80ED11CCA14DB0480F109
:10188000A3014A195B096A0182E0C80ED11C1296B5
:10189000BC9012971396AC91B5E0CB16D10440F0F2
:1018A000B282A38351834083D9016D937C930AC094
:1018B0000E5F1F4FC301800F911FF9019183808339
:1018C000EB2DFA2FE114F10431F0D7011396FC93BC
:1018D000EE93129744C0F0934003E0933F033FC060
:1018E0008D919C9111974817590708F4AC017D011F
:1018F00012960D90BC91A02DB3CF80913D03909195
:101900003E0388159905E1F446175707C8F48091FE
:10191000000190910101009741F48DB79EB740916D
:10192000040150910501841B950BE817F907C8F4D1
:10193000F0933E03E0933D03F901718360830FC090
:10194000CB010E94C10A7C01009759F0A801BE0199
:101950000E94BD0CCE010E94560BC70104C0CE01EF
:1019600002C080E090E0CDB7DEB7EEE00C947C0AD8
:1019700081E090E0F8940C94F00CFB01DC0102C0D3
:1019800001900D9241505040D8F70895FB01DC01C1
:101990008D91019080190110D9F3990B0895FB01E5
:1019A000DC0101900D920020E1F70895FB015191B7
:1019B0005523A9F0BF01DC014D9145174111E1F715
:1019C00059F4CD010190002049F04D91401541118D
:1019D000C9F3FB014111EFCF81E090E00197089539
:1019E00010E0C2E6D0E004C0FE010E94BB0A2196CE
:0A19F000C336D107C9F7F894FFCF02
:1019FA00000041038000000000006701D400FF00DE
:101A0A00AE0130010E012201000000001003D400D3
:101A1A009E030F0364037C03F7020D0A006F6E0036
:101A2A004D6F746F722073657420746F204F4E006F
:101A3A006F6666004D6F746F722073657420746FE1
:101A4A00204F4646005354415445004D6F746F72FF
:101A5A00206973200041542B434D47463D310D0008
:101A6A004154202B20434D4753203D20222B39310E
:101A7A003939383232303230303122004D6F746F9A
:101A8A0072207374617465207265737175657374FD
:101A9A000053494D39303020697320726561647989
:101AAA0020746F2073656E6420726563656976655C
:101ABA0020736D730041542B434E4D493D322C32F5
:101ACA002C302C302C300D0074616E6B20656D70DB
:101ADA0074790074616E6B2066756C6C0057617462
:101AEA00657220696E206D6964004D6F746F722093
:101AFA004F4E004D6F746F72204F4646004D6F7403
:101B0A006F72206D616E75616C6C79204F4E0000AA
:107E0000112484B714BE81FFF0D085E080938100F7
:107E100082E08093C00088E18093C10086E0809377
:107E2000C20080E18093C4008EE0C9D0259A86E02C
:107E300020E33CEF91E0309385002093840096BBD3
:107E4000B09BFECF1D9AA8958150A9F7CC24DD24C4
:107E500088248394B5E0AB2EA1E19A2EF3E0BF2EE7
:107E6000A2D0813461F49FD0082FAFD0023811F036
:107E7000013811F484E001C083E08DD089C08234E0
:107E800011F484E103C0853419F485E0A6D080C0E4
:107E9000853579F488D0E82EFF2485D0082F10E0AE
:107EA000102F00270E291F29000F111F8ED06801E7
:107EB0006FC0863521F484E090D080E0DECF843638
:107EC00009F040C070D06FD0082F6DD080E0C81688
:107ED00080E7D80618F4F601B7BEE895C0E0D1E017
:107EE00062D089930C17E1F7F0E0CF16F0E7DF06D8
:107EF00018F0F601B7BEE89568D007B600FCFDCFD4
:107F0000A601A0E0B1E02C9130E011968C91119780
:107F100090E0982F8827822B932B1296FA010C0160
:107F200087BEE89511244E5F5F4FF1E0A038BF0790
:107F300051F7F601A7BEE89507B600FCFDCF97BE46
:107F4000E89526C08437B1F42ED02DD0F82E2BD052
:107F50003CD0F601EF2C8F010F5F1F4F84911BD097
:107F6000EA94F801C1F70894C11CD11CFA94CF0C13
:107F7000D11C0EC0853739F428D08EE10CD085E9AC
:107F80000AD08FE07ACF813511F488E018D01DD067
:107F900080E101D065CF982F8091C00085FFFCCF94
:107FA0009093C60008958091C00087FFFCCF809118
:107FB000C00084FD01C0A8958091C6000895E0E648
:107FC000F0E098E1908380830895EDDF803219F02E
:107FD00088E0F5DFFFCF84E1DECF1F93182FE3DFCA
:107FE0001150E9F7F2DF1F91089580E0E8DFEE27F6
:047FF000FF270994CA
:027FFE00040479
:0400000300007E007B
:00000001FF
